{
  "_format": "hh-sol-artifact-1",
  "contractName": "FailSafe",
  "sourceName": "contracts/FailSafe.sol",
  "abi": [
    {
      "inputs": [
        {
          "internalType": "address",
          "name": "admin",
          "type": "address"
        },
        {
          "internalType": "address",
          "name": "identityContract",
          "type": "address"
        }
      ],
      "stateMutability": "nonpayable",
      "type": "constructor"
    },
    {
      "inputs": [],
      "name": "AccessControlBadConfirmation",
      "type": "error"
    },
    {
      "inputs": [
        {
          "internalType": "address",
          "name": "account",
          "type": "address"
        },
        {
          "internalType": "bytes32",
          "name": "neededRole",
          "type": "bytes32"
        }
      ],
      "name": "AccessControlUnauthorizedAccount",
      "type": "error"
    },
    {
      "anonymous": false,
      "inputs": [
        {
          "indexed": true,
          "internalType": "address",
          "name": "user",
          "type": "address"
        },
        {
          "indexed": true,
          "internalType": "uint256",
          "name": "tokenId",
          "type": "uint256"
        },
        {
          "indexed": false,
          "internalType": "uint256",
          "name": "timestamp",
          "type": "uint256"
        }
      ],
      "name": "FailsafeEvent",
      "type": "event"
    },
    {
      "anonymous": false,
      "inputs": [
        {
          "indexed": true,
          "internalType": "bytes32",
          "name": "role",
          "type": "bytes32"
        },
        {
          "indexed": true,
          "internalType": "bytes32",
          "name": "previousAdminRole",
          "type": "bytes32"
        },
        {
          "indexed": true,
          "internalType": "bytes32",
          "name": "newAdminRole",
          "type": "bytes32"
        }
      ],
      "name": "RoleAdminChanged",
      "type": "event"
    },
    {
      "anonymous": false,
      "inputs": [
        {
          "indexed": true,
          "internalType": "bytes32",
          "name": "role",
          "type": "bytes32"
        },
        {
          "indexed": true,
          "internalType": "address",
          "name": "account",
          "type": "address"
        },
        {
          "indexed": true,
          "internalType": "address",
          "name": "sender",
          "type": "address"
        }
      ],
      "name": "RoleGranted",
      "type": "event"
    },
    {
      "anonymous": false,
      "inputs": [
        {
          "indexed": true,
          "internalType": "bytes32",
          "name": "role",
          "type": "bytes32"
        },
        {
          "indexed": true,
          "internalType": "address",
          "name": "account",
          "type": "address"
        },
        {
          "indexed": true,
          "internalType": "address",
          "name": "sender",
          "type": "address"
        }
      ],
      "name": "RoleRevoked",
      "type": "event"
    },
    {
      "inputs": [],
      "name": "DEFAULT_ADMIN_ROLE",
      "outputs": [
        {
          "internalType": "bytes32",
          "name": "",
          "type": "bytes32"
        }
      ],
      "stateMutability": "view",
      "type": "function"
    },
    {
      "inputs": [],
      "name": "SECURITY_ROLE",
      "outputs": [
        {
          "internalType": "bytes32",
          "name": "",
          "type": "bytes32"
        }
      ],
      "stateMutability": "view",
      "type": "function"
    },
    {
      "inputs": [
        {
          "internalType": "bytes32",
          "name": "role",
          "type": "bytes32"
        }
      ],
      "name": "getRoleAdmin",
      "outputs": [
        {
          "internalType": "bytes32",
          "name": "",
          "type": "bytes32"
        }
      ],
      "stateMutability": "view",
      "type": "function"
    },
    {
      "inputs": [
        {
          "internalType": "bytes32",
          "name": "role",
          "type": "bytes32"
        },
        {
          "internalType": "address",
          "name": "account",
          "type": "address"
        }
      ],
      "name": "grantRole",
      "outputs": [],
      "stateMutability": "nonpayable",
      "type": "function"
    },
    {
      "inputs": [
        {
          "internalType": "bytes32",
          "name": "role",
          "type": "bytes32"
        },
        {
          "internalType": "address",
          "name": "account",
          "type": "address"
        }
      ],
      "name": "hasRole",
      "outputs": [
        {
          "internalType": "bool",
          "name": "",
          "type": "bool"
        }
      ],
      "stateMutability": "view",
      "type": "function"
    },
    {
      "inputs": [],
      "name": "identity",
      "outputs": [
        {
          "internalType": "contract IIdentityNFTWritable",
          "name": "",
          "type": "address"
        }
      ],
      "stateMutability": "view",
      "type": "function"
    },
    {
      "inputs": [
        {
          "internalType": "address",
          "name": "user",
          "type": "address"
        }
      ],
      "name": "panicSign",
      "outputs": [],
      "stateMutability": "nonpayable",
      "type": "function"
    },
    {
      "inputs": [
        {
          "internalType": "bytes32",
          "name": "role",
          "type": "bytes32"
        },
        {
          "internalType": "address",
          "name": "callerConfirmation",
          "type": "address"
        }
      ],
      "name": "renounceRole",
      "outputs": [],
      "stateMutability": "nonpayable",
      "type": "function"
    },
    {
      "inputs": [
        {
          "internalType": "bytes32",
          "name": "role",
          "type": "bytes32"
        },
        {
          "internalType": "address",
          "name": "account",
          "type": "address"
        }
      ],
      "name": "revokeRole",
      "outputs": [],
      "stateMutability": "nonpayable",
      "type": "function"
    },
    {
      "inputs": [
        {
          "internalType": "bytes4",
          "name": "interfaceId",
          "type": "bytes4"
        }
      ],
      "name": "supportsInterface",
      "outputs": [
        {
          "internalType": "bool",
          "name": "",
          "type": "bool"
        }
      ],
      "stateMutability": "view",
      "type": "function"
    }
  ],
  "bytecode": "0x608060405234801561001057600080fd5b506040516107c43803806107c483398101604081905261002f91610154565b61003a60008361008c565b506100657f4698baa05b306e3e5e3fa66d29891e203a1418ef5bee962e2c9b109f129e89208361008c565b50600180546001600160a01b0319166001600160a01b039290921691909117905550610187565b6000828152602081815260408083206001600160a01b038516845290915281205460ff1661012e576000838152602081815260408083206001600160a01b03861684529091529020805460ff191660011790556100e63390565b6001600160a01b0316826001600160a01b0316847f2f8788117e7eff1d82e926ec794901d17c78024a50270940304540a733656f0d60405160405180910390a4506001610132565b5060005b92915050565b80516001600160a01b038116811461014f57600080fd5b919050565b6000806040838503121561016757600080fd5b61017083610138565b915061017e60208401610138565b90509250929050565b61062e806101966000396000f3fe608060405234801561001057600080fd5b506004361061009e5760003560e01c806391d148541161006657806391d148541461014f578063a217fddf14610162578063cc48b0151461016a578063d547741f1461017d578063dbe106551461019057600080fd5b806301ffc9a7146100a3578063248a9ca3146100cb5780632c159a1a146100fc5780632f2ff15d1461012757806336568abe1461013c575b600080fd5b6100b66100b1366004610532565b6101b7565b60405190151581526020015b60405180910390f35b6100ee6100d9366004610563565b60009081526020819052604090206001015490565b6040519081526020016100c2565b60015461010f906001600160a01b031681565b6040516001600160a01b0390911681526020016100c2565b61013a610135366004610598565b6101ee565b005b61013a61014a366004610598565b610219565b6100b661015d366004610598565b610251565b6100ee600081565b61013a6101783660046105c4565b61027a565b61013a61018b366004610598565b6103c2565b6100ee7f4698baa05b306e3e5e3fa66d29891e203a1418ef5bee962e2c9b109f129e892081565b60006001600160e01b03198216637965db0b60e01b14806101e857506301ffc9a760e01b6001600160e01b03198316145b92915050565b600082815260208190526040902060010154610209816103e7565b61021383836103f4565b50505050565b6001600160a01b03811633146102425760405163334bd91960e11b815260040160405180910390fd5b61024c8282610486565b505050565b6000918252602082815260408084206001600160a01b0393909316845291905290205460ff1690565b7f4698baa05b306e3e5e3fa66d29891e203a1418ef5bee962e2c9b109f129e89206102a4816103e7565b600154604051634f7c31b560e11b81526001600160a01b0384811660048301526000921690639ef8636a90602401602060405180830381865afa1580156102ef573d6000803e3d6000fd5b505050506040513d601f19601f8201168201806040525081019061031391906105df565b905080836001600160a01b03167f3df25acf260ddb97cefb05a4426be9e27a58ed2ade78290e6ab3f7c8d6988b044260405161035191815260200190565b60405180910390a3801561024c5760015460405163313e2eb960e01b8152600481018390526001600160a01b039091169063313e2eb990602401600060405180830381600087803b1580156103a557600080fd5b505af11580156103b9573d6000803e3d6000fd5b50505050505050565b6000828152602081905260409020600101546103dd816103e7565b6102138383610486565b6103f181336104f1565b50565b60006104008383610251565b61047e576000838152602081815260408083206001600160a01b03861684529091529020805460ff191660011790556104363390565b6001600160a01b0316826001600160a01b0316847f2f8788117e7eff1d82e926ec794901d17c78024a50270940304540a733656f0d60405160405180910390a45060016101e8565b5060006101e8565b60006104928383610251565b1561047e576000838152602081815260408083206001600160a01b0386168085529252808320805460ff1916905551339286917ff6391f5c32d9c69d2a47ea670b442974b53935d1edc7fd64eb21e047a839171b9190a45060016101e8565b6104fb8282610251565b61052e5760405163e2517d3f60e01b81526001600160a01b03821660048201526024810183905260440160405180910390fd5b5050565b60006020828403121561054457600080fd5b81356001600160e01b03198116811461055c57600080fd5b9392505050565b60006020828403121561057557600080fd5b5035919050565b80356001600160a01b038116811461059357600080fd5b919050565b600080604083850312156105ab57600080fd5b823591506105bb6020840161057c565b90509250929050565b6000602082840312156105d657600080fd5b61055c8261057c565b6000602082840312156105f157600080fd5b505191905056fea26469706673582212207688c0d0afc12bb040cf7be168f5b0502401e8cbba4c13db5d0086ceaa8ad1e964736f6c63430008140033",
  "linkReferences": {},
  "deployedLinkReferences": {}
}