{
  "_format": "hh-sol-artifact-1",
  "contractName": "IdentityNFT",
  "sourceName": "contracts/IdentityNFT.sol",
  "abi": [
    {
      "inputs": [],
      "stateMutability": "nonpayable",
      "type": "constructor"
    },
    {
      "inputs": [],
      "name": "AccessControlBadConfirmation",
      "type": "error"
    },
    {
      "inputs": [
        {
          "internalType": "address",
          "name": "account",
          "type": "address"
        },
        {
          "internalType": "bytes32",
          "name": "neededRole",
          "type": "bytes32"
        }
      ],
      "name": "AccessControlUnauthorizedAccount",
      "type": "error"
    },
    {
      "inputs": [
        {
          "internalType": "address",
          "name": "sender",
          "type": "address"
        },
        {
          "internalType": "uint256",
          "name": "tokenId",
          "type": "uint256"
        },
        {
          "internalType": "address",
          "name": "owner",
          "type": "address"
        }
      ],
      "name": "ERC721IncorrectOwner",
      "type": "error"
    },
    {
      "inputs": [
        {
          "internalType": "address",
          "name": "operator",
          "type": "address"
        },
        {
          "internalType": "uint256",
          "name": "tokenId",
          "type": "uint256"
        }
      ],
      "name": "ERC721InsufficientApproval",
      "type": "error"
    },
    {
      "inputs": [
        {
          "internalType": "address",
          "name": "approver",
          "type": "address"
        }
      ],
      "name": "ERC721InvalidApprover",
      "type": "error"
    },
    {
      "inputs": [
        {
          "internalType": "address",
          "name": "operator",
          "type": "address"
        }
      ],
      "name": "ERC721InvalidOperator",
      "type": "error"
    },
    {
      "inputs": [
        {
          "internalType": "address",
          "name": "owner",
          "type": "address"
        }
      ],
      "name": "ERC721InvalidOwner",
      "type": "error"
    },
    {
      "inputs": [
        {
          "internalType": "address",
          "name": "receiver",
          "type": "address"
        }
      ],
      "name": "ERC721InvalidReceiver",
      "type": "error"
    },
    {
      "inputs": [
        {
          "internalType": "address",
          "name": "sender",
          "type": "address"
        }
      ],
      "name": "ERC721InvalidSender",
      "type": "error"
    },
    {
      "inputs": [
        {
          "internalType": "uint256",
          "name": "tokenId",
          "type": "uint256"
        }
      ],
      "name": "ERC721NonexistentToken",
      "type": "error"
    },
    {
      "anonymous": false,
      "inputs": [
        {
          "indexed": true,
          "internalType": "address",
          "name": "owner",
          "type": "address"
        },
        {
          "indexed": true,
          "internalType": "address",
          "name": "approved",
          "type": "address"
        },
        {
          "indexed": true,
          "internalType": "uint256",
          "name": "tokenId",
          "type": "uint256"
        }
      ],
      "name": "Approval",
      "type": "event"
    },
    {
      "anonymous": false,
      "inputs": [
        {
          "indexed": true,
          "internalType": "address",
          "name": "owner",
          "type": "address"
        },
        {
          "indexed": true,
          "internalType": "address",
          "name": "operator",
          "type": "address"
        },
        {
          "indexed": false,
          "internalType": "bool",
          "name": "approved",
          "type": "bool"
        }
      ],
      "name": "ApprovalForAll",
      "type": "event"
    },
    {
      "anonymous": false,
      "inputs": [
        {
          "indexed": true,
          "internalType": "bytes32",
          "name": "bioHash",
          "type": "bytes32"
        },
        {
          "indexed": true,
          "internalType": "uint256",
          "name": "tokenId",
          "type": "uint256"
        }
      ],
      "name": "BioHashLinked",
      "type": "event"
    },
    {
      "anonymous": false,
      "inputs": [
        {
          "indexed": true,
          "internalType": "uint256",
          "name": "tokenId",
          "type": "uint256"
        },
        {
          "indexed": true,
          "internalType": "address",
          "name": "owner",
          "type": "address"
        },
        {
          "indexed": true,
          "internalType": "bytes32",
          "name": "bioHash",
          "type": "bytes32"
        },
        {
          "indexed": false,
          "internalType": "string",
          "name": "applicantId",
          "type": "string"
        }
      ],
      "name": "IdentityMinted",
      "type": "event"
    },
    {
      "anonymous": false,
      "inputs": [
        {
          "indexed": true,
          "internalType": "bytes32",
          "name": "bioHash",
          "type": "bytes32"
        },
        {
          "indexed": true,
          "internalType": "uint256",
          "name": "tokenId",
          "type": "uint256"
        },
        {
          "indexed": true,
          "internalType": "address",
          "name": "owner",
          "type": "address"
        }
      ],
      "name": "IdentityRecovered",
      "type": "event"
    },
    {
      "anonymous": false,
      "inputs": [
        {
          "indexed": true,
          "internalType": "uint256",
          "name": "oldTokenId",
          "type": "uint256"
        },
        {
          "indexed": true,
          "internalType": "uint256",
          "name": "newTokenId",
          "type": "uint256"
        },
        {
          "indexed": true,
          "internalType": "bytes32",
          "name": "bioHash",
          "type": "bytes32"
        }
      ],
      "name": "IdentityRevoked",
      "type": "event"
    },
    {
      "anonymous": false,
      "inputs": [
        {
          "indexed": true,
          "internalType": "bytes32",
          "name": "role",
          "type": "bytes32"
        },
        {
          "indexed": true,
          "internalType": "bytes32",
          "name": "previousAdminRole",
          "type": "bytes32"
        },
        {
          "indexed": true,
          "internalType": "bytes32",
          "name": "newAdminRole",
          "type": "bytes32"
        }
      ],
      "name": "RoleAdminChanged",
      "type": "event"
    },
    {
      "anonymous": false,
      "inputs": [
        {
          "indexed": true,
          "internalType": "bytes32",
          "name": "role",
          "type": "bytes32"
        },
        {
          "indexed": true,
          "internalType": "address",
          "name": "account",
          "type": "address"
        },
        {
          "indexed": true,
          "internalType": "address",
          "name": "sender",
          "type": "address"
        }
      ],
      "name": "RoleGranted",
      "type": "event"
    },
    {
      "anonymous": false,
      "inputs": [
        {
          "indexed": true,
          "internalType": "bytes32",
          "name": "role",
          "type": "bytes32"
        },
        {
          "indexed": true,
          "internalType": "address",
          "name": "account",
          "type": "address"
        },
        {
          "indexed": true,
          "internalType": "address",
          "name": "sender",
          "type": "address"
        }
      ],
      "name": "RoleRevoked",
      "type": "event"
    },
    {
      "anonymous": false,
      "inputs": [
        {
          "indexed": true,
          "internalType": "address",
          "name": "from",
          "type": "address"
        },
        {
          "indexed": true,
          "internalType": "address",
          "name": "to",
          "type": "address"
        },
        {
          "indexed": true,
          "internalType": "uint256",
          "name": "tokenId",
          "type": "uint256"
        }
      ],
      "name": "Transfer",
      "type": "event"
    },
    {
      "inputs": [],
      "name": "DEFAULT_ADMIN_ROLE",
      "outputs": [
        {
          "internalType": "bytes32",
          "name": "",
          "type": "bytes32"
        }
      ],
      "stateMutability": "view",
      "type": "function"
    },
    {
      "inputs": [],
      "name": "KYC_PROVIDER_ROLE",
      "outputs": [
        {
          "internalType": "bytes32",
          "name": "",
          "type": "bytes32"
        }
      ],
      "stateMutability": "view",
      "type": "function"
    },
    {
      "inputs": [],
      "name": "MINTER_ROLE",
      "outputs": [
        {
          "internalType": "bytes32",
          "name": "",
          "type": "bytes32"
        }
      ],
      "stateMutability": "view",
      "type": "function"
    },
    {
      "inputs": [
        {
          "internalType": "address",
          "name": "to",
          "type": "address"
        },
        {
          "internalType": "uint256",
          "name": "tokenId",
          "type": "uint256"
        }
      ],
      "name": "approve",
      "outputs": [],
      "stateMutability": "nonpayable",
      "type": "function"
    },
    {
      "inputs": [
        {
          "internalType": "address",
          "name": "owner",
          "type": "address"
        }
      ],
      "name": "balanceOf",
      "outputs": [
        {
          "internalType": "uint256",
          "name": "",
          "type": "uint256"
        }
      ],
      "stateMutability": "view",
      "type": "function"
    },
    {
      "inputs": [
        {
          "internalType": "bytes32",
          "name": "",
          "type": "bytes32"
        },
        {
          "internalType": "uint256",
          "name": "",
          "type": "uint256"
        }
      ],
      "name": "bioHashHistory",
      "outputs": [
        {
          "internalType": "uint256",
          "name": "",
          "type": "uint256"
        }
      ],
      "stateMutability": "view",
      "type": "function"
    },
    {
      "inputs": [
        {
          "internalType": "bytes32",
          "name": "",
          "type": "bytes32"
        }
      ],
      "name": "bioHashToActiveToken",
      "outputs": [
        {
          "internalType": "uint256",
          "name": "",
          "type": "uint256"
        }
      ],
      "stateMutability": "view",
      "type": "function"
    },
    {
      "inputs": [
        {
          "internalType": "bytes32",
          "name": "bioHash",
          "type": "bytes32"
        },
        {
          "internalType": "address",
          "name": "newWalletAddress",
          "type": "address"
        }
      ],
      "name": "emergencyRecovery",
      "outputs": [
        {
          "internalType": "uint256",
          "name": "newTokenId",
          "type": "uint256"
        }
      ],
      "stateMutability": "nonpayable",
      "type": "function"
    },
    {
      "inputs": [
        {
          "internalType": "bytes32",
          "name": "bioHash",
          "type": "bytes32"
        }
      ],
      "name": "getActiveTokenByBioHash",
      "outputs": [
        {
          "internalType": "uint256",
          "name": "tokenId",
          "type": "uint256"
        },
        {
          "internalType": "address",
          "name": "owner",
          "type": "address"
        }
      ],
      "stateMutability": "view",
      "type": "function"
    },
    {
      "inputs": [
        {
          "internalType": "uint256",
          "name": "tokenId",
          "type": "uint256"
        }
      ],
      "name": "getApproved",
      "outputs": [
        {
          "internalType": "address",
          "name": "",
          "type": "address"
        }
      ],
      "stateMutability": "view",
      "type": "function"
    },
    {
      "inputs": [
        {
          "internalType": "bytes32",
          "name": "bioHash",
          "type": "bytes32"
        }
      ],
      "name": "getFullHistory",
      "outputs": [
        {
          "internalType": "uint256[]",
          "name": "tokenIds",
          "type": "uint256[]"
        },
        {
          "components": [
            {
              "internalType": "string",
              "name": "name",
              "type": "string"
            },
            {
              "internalType": "string",
              "name": "documentNumber",
              "type": "string"
            },
            {
              "internalType": "bytes32",
              "name": "bioHash",
              "type": "bytes32"
            },
            {
              "internalType": "uint256",
              "name": "kycTimestamp",
              "type": "uint256"
            },
            {
              "internalType": "bool",
              "name": "isActive",
              "type": "bool"
            },
            {
              "internalType": "uint256",
              "name": "previousTokenId",
              "type": "uint256"
            },
            {
              "internalType": "string",
              "name": "applicantId",
              "type": "string"
            }
          ],
          "internalType": "struct IdentityNFT.IdentityData[]",
          "name": "identityData",
          "type": "tuple[]"
        },
        {
          "internalType": "bool[]",
          "name": "isActiveFlags",
          "type": "bool[]"
        }
      ],
      "stateMutability": "view",
      "type": "function"
    },
    {
      "inputs": [
        {
          "internalType": "bytes32",
          "name": "bioHash",
          "type": "bytes32"
        }
      ],
      "name": "getRevocationCount",
      "outputs": [
        {
          "internalType": "uint256",
          "name": "count",
          "type": "uint256"
        }
      ],
      "stateMutability": "view",
      "type": "function"
    },
    {
      "inputs": [
        {
          "internalType": "bytes32",
          "name": "role",
          "type": "bytes32"
        }
      ],
      "name": "getRoleAdmin",
      "outputs": [
        {
          "internalType": "bytes32",
          "name": "",
          "type": "bytes32"
        }
      ],
      "stateMutability": "view",
      "type": "function"
    },
    {
      "inputs": [
        {
          "internalType": "bytes32",
          "name": "bioHash",
          "type": "bytes32"
        }
      ],
      "name": "getTokenHistory",
      "outputs": [
        {
          "internalType": "uint256[]",
          "name": "tokenIds",
          "type": "uint256[]"
        }
      ],
      "stateMutability": "view",
      "type": "function"
    },
    {
      "inputs": [
        {
          "internalType": "bytes32",
          "name": "role",
          "type": "bytes32"
        },
        {
          "internalType": "address",
          "name": "account",
          "type": "address"
        }
      ],
      "name": "grantRole",
      "outputs": [],
      "stateMutability": "nonpayable",
      "type": "function"
    },
    {
      "inputs": [
        {
          "internalType": "bytes32",
          "name": "role",
          "type": "bytes32"
        },
        {
          "internalType": "address",
          "name": "account",
          "type": "address"
        }
      ],
      "name": "hasRole",
      "outputs": [
        {
          "internalType": "bool",
          "name": "",
          "type": "bool"
        }
      ],
      "stateMutability": "view",
      "type": "function"
    },
    {
      "inputs": [
        {
          "internalType": "uint256",
          "name": "",
          "type": "uint256"
        }
      ],
      "name": "identities",
      "outputs": [
        {
          "internalType": "string",
          "name": "name",
          "type": "string"
        },
        {
          "internalType": "string",
          "name": "documentNumber",
          "type": "string"
        },
        {
          "internalType": "bytes32",
          "name": "bioHash",
          "type": "bytes32"
        },
        {
          "internalType": "uint256",
          "name": "kycTimestamp",
          "type": "uint256"
        },
        {
          "internalType": "bool",
          "name": "isActive",
          "type": "bool"
        },
        {
          "internalType": "uint256",
          "name": "previousTokenId",
          "type": "uint256"
        },
        {
          "internalType": "string",
          "name": "applicantId",
          "type": "string"
        }
      ],
      "stateMutability": "view",
      "type": "function"
    },
    {
      "inputs": [
        {
          "internalType": "uint256",
          "name": "tokenId",
          "type": "uint256"
        }
      ],
      "name": "isActive",
      "outputs": [
        {
          "internalType": "bool",
          "name": "",
          "type": "bool"
        }
      ],
      "stateMutability": "view",
      "type": "function"
    },
    {
      "inputs": [
        {
          "internalType": "address",
          "name": "owner",
          "type": "address"
        },
        {
          "internalType": "address",
          "name": "operator",
          "type": "address"
        }
      ],
      "name": "isApprovedForAll",
      "outputs": [
        {
          "internalType": "bool",
          "name": "",
          "type": "bool"
        }
      ],
      "stateMutability": "view",
      "type": "function"
    },
    {
      "inputs": [
        {
          "internalType": "bytes32",
          "name": "bioHash",
          "type": "bytes32"
        }
      ],
      "name": "isSuspiciousActivity",
      "outputs": [
        {
          "internalType": "bool",
          "name": "isSuspicious",
          "type": "bool"
        },
        {
          "internalType": "string",
          "name": "reason",
          "type": "string"
        }
      ],
      "stateMutability": "view",
      "type": "function"
    },
    {
      "inputs": [
        {
          "internalType": "address",
          "name": "to",
          "type": "address"
        },
        {
          "internalType": "string",
          "name": "name",
          "type": "string"
        },
        {
          "internalType": "string",
          "name": "documentNumber",
          "type": "string"
        },
        {
          "internalType": "bytes32",
          "name": "bioHash",
          "type": "bytes32"
        },
        {
          "internalType": "string",
          "name": "applicantId",
          "type": "string"
        }
      ],
      "name": "mintIdentity",
      "outputs": [
        {
          "internalType": "uint256",
          "name": "",
          "type": "uint256"
        }
      ],
      "stateMutability": "nonpayable",
      "type": "function"
    },
    {
      "inputs": [
        {
          "internalType": "address",
          "name": "user",
          "type": "address"
        },
        {
          "internalType": "string",
          "name": "tokenURIData",
          "type": "string"
        },
        {
          "internalType": "uint256",
          "name": "previousId",
          "type": "uint256"
        }
      ],
      "name": "mintIdentityNFT",
      "outputs": [
        {
          "internalType": "uint256",
          "name": "",
          "type": "uint256"
        }
      ],
      "stateMutability": "nonpayable",
      "type": "function"
    },
    {
      "inputs": [],
      "name": "name",
      "outputs": [
        {
          "internalType": "string",
          "name": "",
          "type": "string"
        }
      ],
      "stateMutability": "view",
      "type": "function"
    },
    {
      "inputs": [
        {
          "internalType": "uint256",
          "name": "tokenId",
          "type": "uint256"
        }
      ],
      "name": "ownerOf",
      "outputs": [
        {
          "internalType": "address",
          "name": "",
          "type": "address"
        }
      ],
      "stateMutability": "view",
      "type": "function"
    },
    {
      "inputs": [
        {
          "internalType": "bytes32",
          "name": "role",
          "type": "bytes32"
        },
        {
          "internalType": "address",
          "name": "callerConfirmation",
          "type": "address"
        }
      ],
      "name": "renounceRole",
      "outputs": [],
      "stateMutability": "nonpayable",
      "type": "function"
    },
    {
      "inputs": [
        {
          "internalType": "bytes32",
          "name": "",
          "type": "bytes32"
        }
      ],
      "name": "revocationCount",
      "outputs": [
        {
          "internalType": "uint256",
          "name": "",
          "type": "uint256"
        }
      ],
      "stateMutability": "view",
      "type": "function"
    },
    {
      "inputs": [
        {
          "internalType": "bytes32",
          "name": "role",
          "type": "bytes32"
        },
        {
          "internalType": "address",
          "name": "account",
          "type": "address"
        }
      ],
      "name": "revokeRole",
      "outputs": [],
      "stateMutability": "nonpayable",
      "type": "function"
    },
    {
      "inputs": [
        {
          "internalType": "address",
          "name": "from",
          "type": "address"
        },
        {
          "internalType": "address",
          "name": "to",
          "type": "address"
        },
        {
          "internalType": "uint256",
          "name": "tokenId",
          "type": "uint256"
        }
      ],
      "name": "safeTransferFrom",
      "outputs": [],
      "stateMutability": "nonpayable",
      "type": "function"
    },
    {
      "inputs": [
        {
          "internalType": "address",
          "name": "from",
          "type": "address"
        },
        {
          "internalType": "address",
          "name": "to",
          "type": "address"
        },
        {
          "internalType": "uint256",
          "name": "tokenId",
          "type": "uint256"
        },
        {
          "internalType": "bytes",
          "name": "data",
          "type": "bytes"
        }
      ],
      "name": "safeTransferFrom",
      "outputs": [],
      "stateMutability": "nonpayable",
      "type": "function"
    },
    {
      "inputs": [
        {
          "internalType": "address",
          "name": "operator",
          "type": "address"
        },
        {
          "internalType": "bool",
          "name": "approved",
          "type": "bool"
        }
      ],
      "name": "setApprovalForAll",
      "outputs": [],
      "stateMutability": "nonpayable",
      "type": "function"
    },
    {
      "inputs": [
        {
          "internalType": "bytes4",
          "name": "interfaceId",
          "type": "bytes4"
        }
      ],
      "name": "supportsInterface",
      "outputs": [
        {
          "internalType": "bool",
          "name": "",
          "type": "bool"
        }
      ],
      "stateMutability": "view",
      "type": "function"
    },
    {
      "inputs": [],
      "name": "symbol",
      "outputs": [
        {
          "internalType": "string",
          "name": "",
          "type": "string"
        }
      ],
      "stateMutability": "view",
      "type": "function"
    },
    {
      "inputs": [
        {
          "internalType": "uint256",
          "name": "",
          "type": "uint256"
        }
      ],
      "name": "tokenToBioHash",
      "outputs": [
        {
          "internalType": "bytes32",
          "name": "",
          "type": "bytes32"
        }
      ],
      "stateMutability": "view",
      "type": "function"
    },
    {
      "inputs": [
        {
          "internalType": "uint256",
          "name": "tokenId",
          "type": "uint256"
        }
      ],
      "name": "tokenURI",
      "outputs": [
        {
          "internalType": "string",
          "name": "",
          "type": "string"
        }
      ],
      "stateMutability": "view",
      "type": "function"
    },
    {
      "inputs": [],
      "name": "totalSupply",
      "outputs": [
        {
          "internalType": "uint256",
          "name": "",
          "type": "uint256"
        }
      ],
      "stateMutability": "view",
      "type": "function"
    },
    {
      "inputs": [
        {
          "internalType": "address",
          "name": "from",
          "type": "address"
        },
        {
          "internalType": "address",
          "name": "to",
          "type": "address"
        },
        {
          "internalType": "uint256",
          "name": "tokenId",
          "type": "uint256"
        }
      ],
      "name": "transferFrom",
      "outputs": [],
      "stateMutability": "nonpayable",
      "type": "function"
    },
    {
      "inputs": [
        {
          "internalType": "address",
          "name": "walletAddress",
          "type": "address"
        },
        {
          "internalType": "bytes32",
          "name": "bioHash",
          "type": "bytes32"
        }
      ],
      "name": "validateWalletForBioHash",
      "outputs": [
        {
          "internalType": "bool",
          "name": "isValid",
          "type": "bool"
        }
      ],
      "stateMutability": "view",
      "type": "function"
    }
  ],
  "bytecode": "0x60806040523480156200001157600080fd5b506040518060400160405280600c81526020016b109b1bd8dadd1c9d5cdd125160a21b815250604051806040016040528060048152602001631095125160e21b815250816000908162000065919062000212565b50600162000074828262000212565b506200008691506000905033620000ba565b50620000b37f9f2df0fed2c77648de5860a4cc508cd0818c85b8b8a1ab4ceeef8d981c8956a633620000ba565b50620002de565b60008281526006602090815260408083206001600160a01b038516845290915281205460ff16620001635760008381526006602090815260408083206001600160a01b03861684529091529020805460ff191660011790556200011a3390565b6001600160a01b0316826001600160a01b0316847f2f8788117e7eff1d82e926ec794901d17c78024a50270940304540a733656f0d60405160405180910390a450600162000167565b5060005b92915050565b634e487b7160e01b600052604160045260246000fd5b600181811c908216806200019857607f821691505b602082108103620001b957634e487b7160e01b600052602260045260246000fd5b50919050565b601f8211156200020d57600081815260208120601f850160051c81016020861015620001e85750805b601f850160051c820191505b818110156200020957828155600101620001f4565b5050505b505050565b81516001600160401b038111156200022e576200022e6200016d565b62000246816200023f845462000183565b84620001bf565b602080601f8311600181146200027e5760008415620002655750858301515b600019600386901b1c1916600185901b17855562000209565b600085815260208120601f198616915b82811015620002af578886015182559484019460019091019084016200028e565b5085821015620002ce5787850151600019600388901b60f8161c191681555b5050505050600190811b01905550565b61301e80620002ee6000396000f3fe608060405234801561001057600080fd5b50600436106102275760003560e01c806376d2bb8d11610130578063b88d4fde116100b8578063d9e1063d1161007c578063d9e1063d1461053d578063e39f4f3114610564578063e985e9c514610584578063eaaf77e614610597578063f10480b0146105bd57600080fd5b8063b88d4fde146104bd578063c5e7529b146104d0578063c87b56dd146104f0578063d539139314610503578063d547741f1461052a57600080fd5b80639513219e116100ff5780639513219e1461046757806395d89b411461047a5780639dba97f114610482578063a217fddf146104a2578063a22cb465146104aa57600080fd5b806376d2bb8d1461041b57806382afd23b1461042e578063910a9ded1461044157806391d148541461045457600080fd5b80632f2ff15d116101b357806342842e0e1161018257806342842e0e146103af57806346e2b282146103c25780635d94242c146103d55780636352211e146103f557806370a082311461040857600080fd5b80632f2ff15d1461033757806336568abe1461034a57806336e0a13d1461035d578063418ea6591461038d57600080fd5b8063095ea7b3116101fa578063095ea7b3146102c25780631316e4f7146102d757806318160ddd146102f857806323b872dd14610301578063248a9ca31461031457600080fd5b806301baae251461022c57806301ffc9a71461025f57806306fdde0314610282578063081812fc14610297575b600080fd5b61024c61023a36600461260a565b600a6020526000908152604090205481565b6040519081526020015b60405180910390f35b61027261026d366004612639565b6105d0565b6040519015158152602001610256565b61028a6105e1565b60405161025691906126ad565b6102aa6102a536600461260a565b610673565b6040516001600160a01b039091168152602001610256565b6102d56102d03660046126dc565b61069c565b005b6102ea6102e536600461260a565b6106ab565b604051610256929190612706565b61024c600c5481565b6102d561030f366004612721565b61085b565b61024c61032236600461260a565b60009081526006602052604090206001015490565b6102d561034536600461275d565b6108eb565b6102d561035836600461275d565b610910565b61037061036b36600461260a565b610948565b604080519283526001600160a01b03909116602083015201610256565b6103a061039b36600461260a565b6109b7565b604051610256939291906127f6565b6102d56103bd366004612721565b610db9565b61024c6103d03660046128e6565b610dd4565b61024c6103e336600461260a565b60086020526000908152604090205481565b6102aa61040336600461260a565b610e05565b61024c610416366004612908565b610e10565b61024c61042936600461275d565b610e58565b61027261043c36600461260a565b6112aa565b61024c61044f3660046129cf565b6112e4565b61027261046236600461275d565b6113bf565b61024c610475366004612a26565b6113ea565b61028a611727565b61024c61049036600461260a565b60009081526008602052604090205490565b61024c600081565b6102d56104b8366004612ac9565b611736565b6102d56104cb366004612b05565b611741565b6104e36104de36600461260a565b611759565b6040516102569190612b81565b61028a6104fe36600461260a565b6117bb565b61024c7f9f2df0fed2c77648de5860a4cc508cd0818c85b8b8a1ab4ceeef8d981c8956a681565b6102d561053836600461275d565b611aa2565b61024c7f6c4079fcac94e7142d8c209744c998efe53a188aadb7e55958f7ad3ea8a1d65281565b61024c61057236600461260a565b60096020526000908152604090205481565b610272610592366004612b94565b611ac7565b6105aa6105a536600461260a565b611af5565b6040516102569796959493929190612bbe565b6102726105cb3660046126dc565b611cd0565b60006105db82611d14565b92915050565b6060600080546105f090612c1f565b80601f016020809104026020016040519081016040528092919081815260200182805461061c90612c1f565b80156106695780601f1061063e57610100808354040283529160200191610669565b820191906000526020600020905b81548152906001019060200180831161064c57829003601f168201915b5050505050905090565b600061067e82611d39565b506000828152600460205260409020546001600160a01b03166105db565b6106a7828233611d72565b5050565b600081815260086020908152604080832054600783528184208054835181860281018601909452808452606094929386939092919083018282801561070f57602002820191906000526020600020905b8154815260200190600101908083116106fb575b505050505090506005821115610756576001604051806040016040528060118152602001704d7569746173207265766f6761636f657360781b815250935093505050915091565b6003821015801561076957506003815110155b1561082f5760008160008151811061078357610783612c59565b602002602001015190506000826001845161079e9190612c85565b815181106107ae576107ae612c59565b6020908102919091018101516000848152600b909252604080832060039081015483855291842001549193506107e391612c85565b90506201518081101561082b576001604051806040016040528060128152602001715265766f6761636f6573207261706964617360701b815250965096505050505050915091565b5050505b600060405180604001604052806006815260200165139bdc9b585b60d21b815250935093505050915091565b6001600160a01b03821661088a57604051633250574960e11b8152600060048201526024015b60405180910390fd5b6000610897838333611d7f565b9050836001600160a01b0316816001600160a01b0316146108e5576040516364283d7b60e01b81526001600160a01b0380861660048301526024820184905282166044820152606401610881565b50505050565b60008281526006602052604090206001015461090681611e08565b6108e58383611e15565b6001600160a01b03811633146109395760405163334bd91960e11b815260040160405180910390fd5b6109438282611ea9565b505050565b600081815260096020526040812054908181036109a75760405162461bcd60e51b815260206004820152601d60248201527f4e656e68756d61206964656e74696461646520656e636f6e74726164610000006044820152606401610881565b6109b082610e05565b9050915091565b606080606060076000858152602001908152602001600020805480602002602001604051908101604052809291908181526020018280548015610a1957602002820191906000526020600020905b815481526020019060010190808311610a05575b50505050509250825167ffffffffffffffff811115610a3a57610a3a612923565b604051908082528060200260200182016040528015610ab057816020015b610a9d6040518060e001604052806060815260200160608152602001600080191681526020016000815260200160001515815260200160008152602001606081525090565b815260200190600190039081610a585790505b509150825167ffffffffffffffff811115610acd57610acd612923565b604051908082528060200260200182016040528015610af6578160200160208202803683370190505b50905060005b8351811015610db157600b6000858381518110610b1b57610b1b612c59565b602002602001015181526020019081526020016000206040518060e0016040529081600082018054610b4c90612c1f565b80601f0160208091040260200160405190810160405280929190818152602001828054610b7890612c1f565b8015610bc55780601f10610b9a57610100808354040283529160200191610bc5565b820191906000526020600020905b815481529060010190602001808311610ba857829003601f168201915b50505050508152602001600182018054610bde90612c1f565b80601f0160208091040260200160405190810160405280929190818152602001828054610c0a90612c1f565b8015610c575780601f10610c2c57610100808354040283529160200191610c57565b820191906000526020600020905b815481529060010190602001808311610c3a57829003601f168201915b50505091835250506002820154602082015260038201546040820152600482015460ff16151560608201526005820154608082015260068201805460a090920191610ca190612c1f565b80601f0160208091040260200160405190810160405280929190818152602001828054610ccd90612c1f565b8015610d1a5780601f10610cef57610100808354040283529160200191610d1a565b820191906000526020600020905b815481529060010190602001808311610cfd57829003601f168201915b505050505081525050838281518110610d3557610d35612c59565b6020026020010181905250600b6000858381518110610d5657610d56612c59565b6020026020010151815260200190815260200160002060040160009054906101000a900460ff16828281518110610d8f57610d8f612c59565b9115156020928302919091019091015280610da981612c98565b915050610afc565b509193909250565b61094383838360405180602001604052806000815250611741565b60076020528160005260406000208181548110610df057600080fd5b90600052602060002001600091509150505481565b60006105db82611d39565b60006001600160a01b038216610e3c576040516322718ad960e21b815260006004820152602401610881565b506001600160a01b031660009081526003602052604090205490565b600082815260096020526040812054808203610eb65760405162461bcd60e51b815260206004820152601960248201527f4964656e746964616465206e616f20656e636f6e7472616461000000000000006044820152606401610881565b33610ec082610e05565b6001600160a01b031614610f0d5760405162461bcd60e51b81526020600482015260146024820152734e616f2065206f2070726f70726965746172696f60601b6044820152606401610881565b6000818152600b60205260408120600401805460ff19169055600c805491610f3483612c98565b9190505550600c5491506000600b60008381526020019081526020016000206040518060e0016040529081600082018054610f6e90612c1f565b80601f0160208091040260200160405190810160405280929190818152602001828054610f9a90612c1f565b8015610fe75780601f10610fbc57610100808354040283529160200191610fe7565b820191906000526020600020905b815481529060010190602001808311610fca57829003601f168201915b5050505050815260200160018201805461100090612c1f565b80601f016020809104026020016040519081016040528092919081815260200182805461102c90612c1f565b80156110795780601f1061104e57610100808354040283529160200191611079565b820191906000526020600020905b81548152906001019060200180831161105c57829003601f168201915b50505091835250506002820154602082015260038201546040820152600482015460ff16151560608201526005820154608082015260068201805460a0909201916110c390612c1f565b80601f01602080910402602001604051908101604052809291908181526020018280546110ef90612c1f565b801561113c5780601f106111115761010080835404028352916020019161113c565b820191906000526020600020905b81548152906001019060200180831161111f57829003601f168201915b5050509190925250506040805160e08101825283518152602080850151818301528183018a90524260608301526001608083015260a0820187905260c080860151908301526000888152600b909152919091208151939450909290915081906111a59082612cf7565b50602082015160018201906111ba9082612cf7565b506040820151600282015560608201516003820155608082015160048201805460ff191691151591909117905560a0820151600582015560c082015160068201906112059082612cf7565b5050506000858152600960209081526040808320869055858352600a8252808320889055878352600782528083208054600181018255908452828420018690558783526008909152812080549161125b83612c98565b919050555061126a8484611f16565b61127382611f30565b8483837f9cfaeddfc2313233830716aa6e54a104288daf5e6a33d13509f5d467f02ff49760405160405180910390a4505092915050565b6000818152600260205260408120546001600160a01b0316158015906105db5750506000908152600b602052604090206004015460ff1690565b60007f9f2df0fed2c77648de5860a4cc508cd0818c85b8b8a1ab4ceeef8d981c8956a661131081611e08565b600085854260405160200161132793929190612db7565b6040516020818303038152906040528051906020012090506113b5866040518060400160405280600b81526020016a2632b3b0b1bc902ab9b2b960a91b815250604051806040016040528060068152602001654c454741435960d01b815250846040518060400160405280601081526020016f3632b3b0b1bc96b6b4b3b930ba34b7b760811b8152506113ea565b9695505050505050565b60009182526006602090815260408084206001600160a01b0393909316845291905290205460ff1690565b60007f9f2df0fed2c77648de5860a4cc508cd0818c85b8b8a1ab4ceeef8d981c8956a661141681611e08565b6001600160a01b0387166114605760405162461bcd60e51b8152602060048201526011602482015270456e64657265636f20696e76616c69646f60781b6044820152606401610881565b836114a05760405162461bcd60e51b815260206004820152601060248201526f42696f4861736820696e76616c69646f60801b6044820152606401610881565b60008651116114e45760405162461bcd60e51b815260206004820152601060248201526f4e6f6d65206f6272696761746f72696f60801b6044820152606401610881565b600085511161152d5760405162461bcd60e51b8152602060048201526015602482015274446f63756d656e746f206f6272696761746f72696f60581b6044820152606401610881565b60008481526009602052604090205480156115995760405162461bcd60e51b815260206004820152602660248201527f4964656e746964616465206a61206578697374652070617261206573746520626044820152650d2de90c2e6d60d31b6064820152608401610881565b600c80549060006115a983612c98565b9091555050600c546040805160e08101825289815260208082018a905281830189905242606083015260016080830152600060a0830181905260c08301899052848152600b90915291909120815181906116039082612cf7565b50602082015160018201906116189082612cf7565b506040820151600282015560608201516003820155608082015160048201805460ff191691151591909117905560a0820151600582015560c082015160068201906116639082612cf7565b5050506000868152600960209081526040808320849055838352600a825280832089905588835260078252822080546001810182559083529120018190556116ab8982611f16565b85896001600160a01b0316827f1c826b36b4236acca084cc286b3d731d5699e0f09220d558d999038f47c9d68c886040516116e691906126ad565b60405180910390a4604051819087907f34fa1ff7021f50135559b2c35197c47b3173f5763cb3d6d757ef50ec38b6cd3090600090a398975050505050505050565b6060600180546105f090612c1f565b6106a7338383611f6b565b61174c84848461085b565b6108e5338585858561200a565b6000818152600760209081526040918290208054835181840281018401909452808452606093928301828280156117af57602002820191906000526020600020905b81548152602001906001019080831161179b575b50505050509050919050565b6000818152600260205260409020546060906001600160a01b03166118165760405162461bcd60e51b8152602060048201526011602482015270546f6b656e20696e6578697374656e746560781b6044820152606401610881565b6000828152600b6020526040808220815160e0810190925280548290829061183d90612c1f565b80601f016020809104026020016040519081016040528092919081815260200182805461186990612c1f565b80156118b65780601f1061188b576101008083540402835291602001916118b6565b820191906000526020600020905b81548152906001019060200180831161189957829003601f168201915b505050505081526020016001820180546118cf90612c1f565b80601f01602080910402602001604051908101604052809291908181526020018280546118fb90612c1f565b80156119485780601f1061191d57610100808354040283529160200191611948565b820191906000526020600020905b81548152906001019060200180831161192b57829003601f168201915b50505091835250506002820154602082015260038201546040820152600482015460ff16151560608201526005820154608082015260068201805460a09092019161199290612c1f565b80601f01602080910402602001604051908101604052809291908181526020018280546119be90612c1f565b8015611a0b5780601f106119e057610100808354040283529160200191611a0b565b820191906000526020600020905b8154815290600101906020018083116119ee57829003601f168201915b5050505050815250509050611a1f83612135565b8160800151611a4d5760405180604001604052806007815260200166496e617469766f60c81b815250611a6c565b60405180604001604052806005815260200164417469766f60d81b8152505b611a798360600151612135565b604051602001611a8b93929190612df6565b604051602081830303815290604052915050919050565b600082815260066020526040902060010154611abd81611e08565b6108e58383611ea9565b6001600160a01b03918216600090815260056020908152604080832093909416825291909152205460ff1690565b600b60205260009081526040902080548190611b1090612c1f565b80601f0160208091040260200160405190810160405280929190818152602001828054611b3c90612c1f565b8015611b895780601f10611b5e57610100808354040283529160200191611b89565b820191906000526020600020905b815481529060010190602001808311611b6c57829003601f168201915b505050505090806001018054611b9e90612c1f565b80601f0160208091040260200160405190810160405280929190818152602001828054611bca90612c1f565b8015611c175780601f10611bec57610100808354040283529160200191611c17565b820191906000526020600020905b815481529060010190602001808311611bfa57829003601f168201915b50505060028401546003850154600486015460058701546006880180549798949793965060ff90921694509291611c4d90612c1f565b80601f0160208091040260200160405190810160405280929190818152602001828054611c7990612c1f565b8015611cc65780601f10611c9b57610100808354040283529160200191611cc6565b820191906000526020600020905b815481529060010190602001808311611ca957829003601f168201915b5050505050905087565b600081815260096020526040812054808203611cf05760009150506105db565b6000611cfb82610e05565b6001600160a01b03908116908616149250505092915050565b60006001600160e01b03198216637965db0b60e01b14806105db57506105db8261223e565b6000818152600260205260408120546001600160a01b0316806105db57604051637e27328960e01b815260048101849052602401610881565b610943838383600161228e565b6000828152600260205260408120546001600160a01b03168015801590611dae57506001600160a01b03851615155b15611df45760405162461bcd60e51b81526020600482015260166024820152755342543a207472616e736665722070726f696269646f60501b6044820152606401610881565b611dff858585612394565b95945050505050565b611e12813361248d565b50565b6000611e2183836113bf565b611ea15760008381526006602090815260408083206001600160a01b03861684529091529020805460ff19166001179055611e593390565b6001600160a01b0316826001600160a01b0316847f2f8788117e7eff1d82e926ec794901d17c78024a50270940304540a733656f0d60405160405180910390a45060016105db565b5060006105db565b6000611eb583836113bf565b15611ea15760008381526006602090815260408083206001600160a01b0386168085529252808320805460ff1916905551339286917ff6391f5c32d9c69d2a47ea670b442974b53935d1edc7fd64eb21e047a839171b9190a45060016105db565b6106a78282604051806020016040528060008152506124c6565b6000611f3f6000836000611d7f565b90506001600160a01b0381166106a757604051637e27328960e01b815260048101839052602401610881565b6001600160a01b038216611f9d57604051630b61174360e31b81526001600160a01b0383166004820152602401610881565b6001600160a01b03838116600081815260056020908152604080832094871680845294825291829020805460ff191686151590811790915591519182527f17307eab39ab6107e8899845ad3d59bd9653f200f220920489ca2b5937696c31910160405180910390a3505050565b6001600160a01b0383163b1561212e57604051630a85bd0160e11b81526001600160a01b0384169063150b7a029061204c908890889087908790600401612f47565b6020604051808303816000875af1925050508015612087575060408051601f3d908101601f1916820190925261208491810190612f7a565b60015b6120f0573d8080156120b5576040519150601f19603f3d011682016040523d82523d6000602084013e6120ba565b606091505b5080516000036120e857604051633250574960e11b81526001600160a01b0385166004820152602401610881565b805160208201fd5b6001600160e01b03198116630a85bd0160e11b1461212c57604051633250574960e11b81526001600160a01b0385166004820152602401610881565b505b5050505050565b60608160000361215c5750506040805180820190915260018152600360fc1b602082015290565b8160005b8115612186578061217081612c98565b915061217f9050600a83612fad565b9150612160565b60008167ffffffffffffffff8111156121a1576121a1612923565b6040519080825280601f01601f1916602001820160405280156121cb576020820181803683370190505b5090505b8415612236576121e0600183612c85565b91506121ed600a86612fc1565b6121f8906030612fd5565b60f81b81838151811061220d5761220d612c59565b60200101906001600160f81b031916908160001a90535061222f600a86612fad565b94506121cf565b949350505050565b60006001600160e01b031982166380ac58cd60e01b148061226f57506001600160e01b03198216635b5e139f60e01b145b806105db57506301ffc9a760e01b6001600160e01b03198316146105db565b80806122a257506001600160a01b03821615155b156123645760006122b284611d39565b90506001600160a01b038316158015906122de5750826001600160a01b0316816001600160a01b031614155b80156122f157506122ef8184611ac7565b155b1561231a5760405163a9fbf51f60e01b81526001600160a01b0384166004820152602401610881565b81156123625783856001600160a01b0316826001600160a01b03167f8c5be1e5ebec7d5bd14f71427d1e84f3dd0314c0f7b2291e5b200ac8c7c3b92560405160405180910390a45b505b5050600090815260046020526040902080546001600160a01b0319166001600160a01b0392909216919091179055565b6000828152600260205260408120546001600160a01b03908116908316156123c1576123c18184866124de565b6001600160a01b038116156123ff576123de60008560008061228e565b6001600160a01b038116600090815260036020526040902080546000190190555b6001600160a01b0385161561242e576001600160a01b0385166000908152600360205260409020805460010190555b60008481526002602052604080822080546001600160a01b0319166001600160a01b0389811691821790925591518793918516917fddf252ad1be2c89b69c2b068fc378daa952ba7f163c4a11628f55a4df523b3ef91a4949350505050565b61249782826113bf565b6106a75760405163e2517d3f60e01b81526001600160a01b038216600482015260248101839052604401610881565b6124d08383612542565b61094333600085858561200a565b6124e98383836125a7565b610943576001600160a01b03831661251757604051637e27328960e01b815260048101829052602401610881565b60405163177e802f60e01b81526001600160a01b038316600482015260248101829052604401610881565b6001600160a01b03821661256c57604051633250574960e11b815260006004820152602401610881565b600061257a83836000611d7f565b90506001600160a01b03811615610943576040516339e3563760e11b815260006004820152602401610881565b60006001600160a01b038316158015906122365750826001600160a01b0316846001600160a01b031614806125e157506125e18484611ac7565b806122365750506000908152600460205260409020546001600160a01b03908116911614919050565b60006020828403121561261c57600080fd5b5035919050565b6001600160e01b031981168114611e1257600080fd5b60006020828403121561264b57600080fd5b813561265681612623565b9392505050565b60005b83811015612678578181015183820152602001612660565b50506000910152565b6000815180845261269981602086016020860161265d565b601f01601f19169290920160200192915050565b6020815260006126566020830184612681565b80356001600160a01b03811681146126d757600080fd5b919050565b600080604083850312156126ef57600080fd5b6126f8836126c0565b946020939093013593505050565b82151581526040602082015260006122366040830184612681565b60008060006060848603121561273657600080fd5b61273f846126c0565b925061274d602085016126c0565b9150604084013590509250925092565b6000806040838503121561277057600080fd5b82359150612780602084016126c0565b90509250929050565b600081518084526020808501945080840160005b838110156127b95781518752958201959082019060010161279d565b509495945050505050565b600081518084526020808501945080840160005b838110156127b95781511515875295820195908201906001016127d8565b6000606080835261280981840187612789565b6020848203818601528187518084528284019150828160051b850101838a0160005b838110156128c357601f19878403018552815160e0815181865261285182870182612681565b91505087820151858203898701526128698282612681565b604084810151908801528b8401518c88015260808085015115159088015260a0808501519088015260c0938401518782039488019490945291506128af90508183612681565b96880196945050509085019060010161282b565b505087810360408901526128d7818a6127c4565b9b9a5050505050505050505050565b600080604083850312156128f957600080fd5b50508035926020909101359150565b60006020828403121561291a57600080fd5b612656826126c0565b634e487b7160e01b600052604160045260246000fd5b600067ffffffffffffffff8084111561295457612954612923565b604051601f8501601f19908116603f0116810190828211818310171561297c5761297c612923565b8160405280935085815286868601111561299557600080fd5b858560208301376000602087830101525050509392505050565b600082601f8301126129c057600080fd5b61265683833560208501612939565b6000806000606084860312156129e457600080fd5b6129ed846126c0565b9250602084013567ffffffffffffffff811115612a0957600080fd5b612a15868287016129af565b925050604084013590509250925092565b600080600080600060a08688031215612a3e57600080fd5b612a47866126c0565b9450602086013567ffffffffffffffff80821115612a6457600080fd5b612a7089838a016129af565b95506040880135915080821115612a8657600080fd5b612a9289838a016129af565b9450606088013593506080880135915080821115612aaf57600080fd5b50612abc888289016129af565b9150509295509295909350565b60008060408385031215612adc57600080fd5b612ae5836126c0565b915060208301358015158114612afa57600080fd5b809150509250929050565b60008060008060808587031215612b1b57600080fd5b612b24856126c0565b9350612b32602086016126c0565b925060408501359150606085013567ffffffffffffffff811115612b5557600080fd5b8501601f81018713612b6657600080fd5b612b7587823560208401612939565b91505092959194509250565b6020815260006126566020830184612789565b60008060408385031215612ba757600080fd5b612bb0836126c0565b9150612780602084016126c0565b60e081526000612bd160e083018a612681565b8281036020840152612be3818a612681565b905087604084015286606084015285151560808401528460a084015282810360c0840152612c118185612681565b9a9950505050505050505050565b600181811c90821680612c3357607f821691505b602082108103612c5357634e487b7160e01b600052602260045260246000fd5b50919050565b634e487b7160e01b600052603260045260246000fd5b634e487b7160e01b600052601160045260246000fd5b818103818111156105db576105db612c6f565b600060018201612caa57612caa612c6f565b5060010190565b601f82111561094357600081815260208120601f850160051c81016020861015612cd85750805b601f850160051c820191505b8181101561212c57828155600101612ce4565b815167ffffffffffffffff811115612d1157612d11612923565b612d2581612d1f8454612c1f565b84612cb1565b602080601f831160018114612d5a5760008415612d425750858301515b600019600386901b1c1916600185901b17855561212c565b600085815260208120601f198616915b82811015612d8957888601518255948401946001909101908401612d6a565b5085821015612da75787850151600019600388901b60f8161c191681555b5050505050600190811b01905550565b6bffffffffffffffffffffffff198460601b16815260008351612de181601485016020880161265d565b60149201918201929092526034019392505050565b7f7b226e616d65223a2022426c6f636b7472757374204964656e74697479202300815260008451612e2e81601f85016020890161265d565b7f222c20226465736372697074696f6e223a20224964656e746964616465206469601f918401918201527f676974616c2076657269666963616461222c202261747472696275746573223a603f82015261205b60f01b605f8201527f7b2274726169745f74797065223a2022537461747573222c202276616c7565226061820152621d101160e91b60818201528451612ece81608484016020890161265d565b7f227d2c207b2274726169745f74797065223a20224b59432054696d657374616d608492909101918201526d38111610113b30b63ab2911d101160911b60a48201528351612f238160b284016020880161265d565b612f3c60b28284010163227d5d7d60e01b815260040190565b979650505050505050565b6001600160a01b03858116825284166020820152604081018390526080606082018190526000906113b590830184612681565b600060208284031215612f8c57600080fd5b815161265681612623565b634e487b7160e01b600052601260045260246000fd5b600082612fbc57612fbc612f97565b500490565b600082612fd057612fd0612f97565b500690565b808201808211156105db576105db612c6f56fea264697066735822122027fa919ead68cb4839480a3721a248f99d16868da805bf9414e7576b7c4f7a8664736f6c63430008140033",
  "linkReferences": {},
  "deployedLinkReferences": {}
}