{
  "_format": "hh-sol-artifact-1",
  "contractName": "ProofRegistry",
  "sourceName": "contracts/ProofRegistry.sol",
  "abi": [
    {
      "inputs": [
        {
          "internalType": "address",
          "name": "identityContract",
          "type": "address"
        }
      ],
      "stateMutability": "nonpayable",
      "type": "constructor"
    },
    {
      "anonymous": false,
      "inputs": [
        {
          "indexed": true,
          "internalType": "string",
          "name": "docHash",
          "type": "string"
        },
        {
          "indexed": true,
          "internalType": "address",
          "name": "signer",
          "type": "address"
        },
        {
          "indexed": false,
          "internalType": "uint256",
          "name": "timestamp",
          "type": "uint256"
        }
      ],
      "name": "ProofRegistered",
      "type": "event"
    },
    {
      "anonymous": false,
      "inputs": [
        {
          "indexed": true,
          "internalType": "string",
          "name": "docHash",
          "type": "string"
        },
        {
          "indexed": true,
          "internalType": "address",
          "name": "by",
          "type": "address"
        },
        {
          "indexed": false,
          "internalType": "uint256",
          "name": "timestamp",
          "type": "uint256"
        }
      ],
      "name": "ProofRevoked",
      "type": "event"
    },
    {
      "anonymous": false,
      "inputs": [
        {
          "indexed": true,
          "internalType": "bytes32",
          "name": "docHash",
          "type": "bytes32"
        },
        {
          "indexed": true,
          "internalType": "address",
          "name": "signer",
          "type": "address"
        },
        {
          "indexed": false,
          "internalType": "bytes20",
          "name": "pgpFingerprint",
          "type": "bytes20"
        },
        {
          "indexed": false,
          "internalType": "bytes32",
          "name": "pgpSigHash",
          "type": "bytes32"
        },
        {
          "indexed": false,
          "internalType": "uint256",
          "name": "nftId",
          "type": "uint256"
        },
        {
          "indexed": false,
          "internalType": "uint256",
          "name": "timestamp",
          "type": "uint256"
        }
      ],
      "name": "ProofStoredDual",
      "type": "event"
    },
    {
      "inputs": [
        {
          "internalType": "bytes32",
          "name": "",
          "type": "bytes32"
        }
      ],
      "name": "dualProofs",
      "outputs": [
        {
          "internalType": "bytes32",
          "name": "docHash",
          "type": "bytes32"
        },
        {
          "internalType": "address",
          "name": "signer",
          "type": "address"
        },
        {
          "internalType": "bytes20",
          "name": "pgpFingerprint",
          "type": "bytes20"
        },
        {
          "internalType": "bytes32",
          "name": "pgpSigHash",
          "type": "bytes32"
        },
        {
          "internalType": "uint256",
          "name": "nftId",
          "type": "uint256"
        },
        {
          "internalType": "uint256",
          "name": "timestamp",
          "type": "uint256"
        },
        {
          "internalType": "bool",
          "name": "revoked",
          "type": "bool"
        }
      ],
      "stateMutability": "view",
      "type": "function"
    },
    {
      "inputs": [],
      "name": "identity",
      "outputs": [
        {
          "internalType": "contract IIdentityNFT",
          "name": "",
          "type": "address"
        }
      ],
      "stateMutability": "view",
      "type": "function"
    },
    {
      "inputs": [
        {
          "internalType": "string",
          "name": "",
          "type": "string"
        }
      ],
      "name": "proofs",
      "outputs": [
        {
          "internalType": "string",
          "name": "docHash",
          "type": "string"
        },
        {
          "internalType": "address",
          "name": "signer",
          "type": "address"
        },
        {
          "internalType": "string",
          "name": "proofUrl",
          "type": "string"
        },
        {
          "internalType": "uint256",
          "name": "timestamp",
          "type": "uint256"
        },
        {
          "internalType": "bool",
          "name": "revoked",
          "type": "bool"
        }
      ],
      "stateMutability": "view",
      "type": "function"
    },
    {
      "inputs": [
        {
          "internalType": "string",
          "name": "docHash",
          "type": "string"
        },
        {
          "internalType": "string",
          "name": "proofUrl",
          "type": "string"
        }
      ],
      "name": "registerProof",
      "outputs": [],
      "stateMutability": "nonpayable",
      "type": "function"
    },
    {
      "inputs": [
        {
          "internalType": "bytes32",
          "name": "docHash",
          "type": "bytes32"
        }
      ],
      "name": "revokeDual",
      "outputs": [],
      "stateMutability": "nonpayable",
      "type": "function"
    },
    {
      "inputs": [
        {
          "internalType": "string",
          "name": "docHash",
          "type": "string"
        }
      ],
      "name": "revokeProof",
      "outputs": [],
      "stateMutability": "nonpayable",
      "type": "function"
    },
    {
      "inputs": [
        {
          "internalType": "bytes32",
          "name": "docHash",
          "type": "bytes32"
        },
        {
          "internalType": "bytes20",
          "name": "pgpFingerprint",
          "type": "bytes20"
        },
        {
          "internalType": "bytes32",
          "name": "pgpSigHash",
          "type": "bytes32"
        },
        {
          "internalType": "uint256",
          "name": "nftId",
          "type": "uint256"
        }
      ],
      "name": "storeDual",
      "outputs": [],
      "stateMutability": "nonpayable",
      "type": "function"
    },
    {
      "inputs": [
        {
          "internalType": "bytes32",
          "name": "docHash",
          "type": "bytes32"
        }
      ],
      "name": "verifyDual",
      "outputs": [
        {
          "components": [
            {
              "internalType": "bytes32",
              "name": "docHash",
              "type": "bytes32"
            },
            {
              "internalType": "address",
              "name": "signer",
              "type": "address"
            },
            {
              "internalType": "bytes20",
              "name": "pgpFingerprint",
              "type": "bytes20"
            },
            {
              "internalType": "bytes32",
              "name": "pgpSigHash",
              "type": "bytes32"
            },
            {
              "internalType": "uint256",
              "name": "nftId",
              "type": "uint256"
            },
            {
              "internalType": "uint256",
              "name": "timestamp",
              "type": "uint256"
            },
            {
              "internalType": "bool",
              "name": "revoked",
              "type": "bool"
            }
          ],
          "internalType": "struct ProofRegistry.DualProof",
          "name": "",
          "type": "tuple"
        }
      ],
      "stateMutability": "view",
      "type": "function"
    },
    {
      "inputs": [
        {
          "internalType": "string",
          "name": "docHash",
          "type": "string"
        }
      ],
      "name": "verifyProof",
      "outputs": [
        {
          "components": [
            {
              "internalType": "string",
              "name": "docHash",
              "type": "string"
            },
            {
              "internalType": "address",
              "name": "signer",
              "type": "address"
            },
            {
              "internalType": "string",
              "name": "proofUrl",
              "type": "string"
            },
            {
              "internalType": "uint256",
              "name": "timestamp",
              "type": "uint256"
            },
            {
              "internalType": "bool",
              "name": "revoked",
              "type": "bool"
            }
          ],
          "internalType": "struct ProofRegistry.Proof",
          "name": "",
          "type": "tuple"
        }
      ],
      "stateMutability": "view",
      "type": "function"
    }
  ],
  "bytecode": "0x608060405234801561001057600080fd5b5060405161129138038061129183398101604081905261002f91610054565b600280546001600160a01b0319166001600160a01b0392909216919091179055610084565b60006020828403121561006657600080fd5b81516001600160a01b038116811461007d57600080fd5b9392505050565b6111fe806100936000396000f3fe608060405234801561001057600080fd5b50600436106100935760003560e01c806344783344116100665780634478334414610125578063738840d6146101385780638903df521461014b5780639beac93e146101f5578063b40284a11461020857600080fd5b8063234155f9146100985780632640df77146100ad5780632c159a1a146100d65780633b18f69114610101575b600080fd5b6100ab6100a6366004610d0e565b610336565b005b6100c06100bb366004610d0e565b6103f0565b6040516100cd9190610d96565b60405180910390f35b6002546100e9906001600160a01b031681565b6040516001600160a01b0390911681526020016100cd565b61011461010f366004610e1e565b6105b4565b6040516100cd959493929190610ecf565b6100ab610133366004610f1d565b610710565b6100ab610146366004610f89565b6109a8565b6101a7610159366004610fd3565b600160208190526000918252604090912080549181015460028201546003830154600484015460058501546006909501546001600160a01b039094169460609390931b939192909160ff1687565b604080519788526001600160a01b0390961660208801526001600160601b0319909416948601949094526060850191909152608084015260a0830191909152151560c082015260e0016100cd565b6100ab610203366004610fd3565b610c78565b6102d0610216366004610fd3565b6040805160e081018252600080825260208201819052918101829052606081018290526080810182905260a0810182905260c081019190915250600090815260016020818152604092839020835160e08101855281548152928101546001600160a01b03169183019190915260028101546001600160601b0319606091821b169383019390935260038101549282019290925260048201546080820152600582015460a082015260069091015460ff16151560c082015290565b6040516100cd9190815181526020808301516001600160a01b0316908201526040808301516001600160601b03191690820152606080830151908201526080808301519082015260a0808301519082015260c09182015115159181019190915260e00190565b6000808383604051610349929190610fec565b90815260405190819003602001902060018101549091506001600160a01b031633146103905760405162461bcd60e51b815260040161038790610ffc565b60405180910390fd5b60048101805460ff1916600117905560405133906103b19085908590610fec565b604051908190038120428252907fdca103c48e63cf112227fc046ddb5fb4cb09e777b0f6da9b897de984f26a5dd59060200160405180910390a3505050565b61042d6040518060a001604052806060815260200160006001600160a01b0316815260200160608152602001600081526020016000151581525090565b6000838360405161043f929190610fec565b90815260200160405180910390206040518060a00160405290816000820180546104689061103d565b80601f01602080910402602001604051908101604052809291908181526020018280546104949061103d565b80156104e15780601f106104b6576101008083540402835291602001916104e1565b820191906000526020600020905b8154815290600101906020018083116104c457829003601f168201915b505050918352505060018201546001600160a01b031660208201526002820180546040909201916105119061103d565b80601f016020809104026020016040519081016040528092919081815260200182805461053d9061103d565b801561058a5780601f1061055f5761010080835404028352916020019161058a565b820191906000526020600020905b81548152906001019060200180831161056d57829003601f168201915b50505091835250506003820154602082015260049091015460ff1615156040909101529392505050565b80516020818301810180516000825292820191909301209152805481906105da9061103d565b80601f01602080910402602001604051908101604052809291908181526020018280546106069061103d565b80156106535780601f1061062857610100808354040283529160200191610653565b820191906000526020600020905b81548152906001019060200180831161063657829003601f168201915b505050600184015460028501805494956001600160a01b0390921694919350915061067d9061103d565b80601f01602080910402602001604051908101604052809291908181526020018280546106a99061103d565b80156106f65780601f106106cb576101008083540402835291602001916106f6565b820191906000526020600020905b8154815290600101906020018083116106d957829003601f168201915b50505050600383015460049093015491929160ff16905085565b600254604051634f7c31b560e11b81523360048201526000916001600160a01b031690639ef8636a90602401602060405180830381865afa158015610759573d6000803e3d6000fd5b505050506040513d601f19601f8201168201806040525081019061077d9190611077565b905080158015906107f657506002546040516382afd23b60e01b8152600481018390526001600160a01b03909116906382afd23b90602401602060405180830381865afa1580156107d2573d6000803e3d6000fd5b505050506040513d601f19601f820116820180604052508101906107f69190611090565b6108375760405162461bcd60e51b81526020600482015260126024820152714964656e74696461646520696e617469766160701b6044820152606401610387565b6040518060a0016040528086868080601f0160208091040260200160405190810160405280939291908181526020018383808284376000920191909152505050908252503360208083019190915260408051601f870183900483028101830182528681529201919086908690819084018382808284376000920182905250938552505042602084015250604091820181905290516108d89088908890610fec565b908152604051908190036020019020815181906108f59082611108565b5060208201516001820180546001600160a01b0319166001600160a01b03909216919091179055604082015160028201906109309082611108565b50606082015160038201556080909101516004909101805460ff191691151591909117905560405133906109679087908790610fec565b604051908190038120428252907f4ae857a083ada02193ee91f5ded431beb0178c47ff7d0e1cc27a87c931e568209060200160405180910390a35050505050565b6002546040516382afd23b60e01b8152600481018390526001600160a01b03909116906382afd23b90602401602060405180830381865afa1580156109f1573d6000803e3d6000fd5b505050506040513d601f19601f82011682018060405250810190610a159190611090565b610a4f5760405162461bcd60e51b815260206004820152600b60248201526a4e465420696e617469766f60a81b6044820152606401610387565b600254604051634f7c31b560e11b815233600482015282916001600160a01b031690639ef8636a90602401602060405180830381865afa158015610a97573d6000803e3d6000fd5b505050506040513d601f19601f82011682018060405250810190610abb9190611077565b14610b085760405162461bcd60e51b815260206004820152601b60248201527f4e4654206e616f2070657274656e636520616f207573756172696f00000000006044820152606401610387565b6040518060e00160405280858152602001336001600160a01b03168152602001846bffffffffffffffffffffffff1916815260200183815260200182815260200142815260200160001515815250600160008681526020019081526020016000206000820151816000015560208201518160010160006101000a8154816001600160a01b0302191690836001600160a01b0316021790555060408201518160020160006101000a8154816001600160a01b03021916908360601c0217905550606082015181600301556080820151816004015560a0820151816005015560c08201518160060160006101000a81548160ff021916908315150217905550905050336001600160a01b0316847f059ff8306b08be1b3aa7a98411e632a05a8d5a2f023a1c92686cb481a6280c2885858542604051610c6a94939291906001600160601b031994909416845260208401929092526040830152606082015260800190565b60405180910390a350505050565b6000818152600160208190526040909120908101546001600160a01b03163314610cb45760405162461bcd60e51b815260040161038790610ffc565b600601805460ff1916600117905550565b60008083601f840112610cd757600080fd5b50813567ffffffffffffffff811115610cef57600080fd5b602083019150836020828501011115610d0757600080fd5b9250929050565b60008060208385031215610d2157600080fd5b823567ffffffffffffffff811115610d3857600080fd5b610d4485828601610cc5565b90969095509350505050565b6000815180845260005b81811015610d7657602081850181015186830182015201610d5a565b506000602082860101526020601f19601f83011685010191505092915050565b602081526000825160a06020840152610db260c0840182610d50565b60208501516001600160a01b0316604085810191909152850151848203601f19016060860152909150610de58282610d50565b915050606084015160808401526080840151151560a08401528091505092915050565b634e487b7160e01b600052604160045260246000fd5b600060208284031215610e3057600080fd5b813567ffffffffffffffff80821115610e4857600080fd5b818401915084601f830112610e5c57600080fd5b813581811115610e6e57610e6e610e08565b604051601f8201601f19908116603f01168101908382118183101715610e9657610e96610e08565b81604052828152876020848701011115610eaf57600080fd5b826020860160208301376000928101602001929092525095945050505050565b60a081526000610ee260a0830188610d50565b6001600160a01b03871660208401528281036040840152610f038187610d50565b606084019590955250509015156080909101529392505050565b60008060008060408587031215610f3357600080fd5b843567ffffffffffffffff80821115610f4b57600080fd5b610f5788838901610cc5565b90965094506020870135915080821115610f7057600080fd5b50610f7d87828801610cc5565b95989497509550505050565b60008060008060808587031215610f9f57600080fd5b8435935060208501356001600160601b031981168114610fbe57600080fd5b93969395505050506040820135916060013590565b600060208284031215610fe557600080fd5b5035919050565b8183823760009101908152919050565b60208082526021908201527f536f6d656e7465206f207369676e61746172696f20706f6465207265766f67616040820152603960f91b606082015260800190565b600181811c9082168061105157607f821691505b60208210810361107157634e487b7160e01b600052602260045260246000fd5b50919050565b60006020828403121561108957600080fd5b5051919050565b6000602082840312156110a257600080fd5b815180151581146110b257600080fd5b9392505050565b601f82111561110357600081815260208120601f850160051c810160208610156110e05750805b601f850160051c820191505b818110156110ff578281556001016110ec565b5050505b505050565b815167ffffffffffffffff81111561112257611122610e08565b61113681611130845461103d565b846110b9565b602080601f83116001811461116b57600084156111535750858301515b600019600386901b1c1916600185901b1785556110ff565b600085815260208120601f198616915b8281101561119a5788860151825594840194600190910190840161117b565b50858210156111b85787850151600019600388901b60f8161c191681555b5050505050600190811b0190555056fea2646970667358221220a781ec003e120c4d5e57bfb273dda2368dfd26e7a5efb57bdaeea2396940c07064736f6c63430008140033",
  "linkReferences": {},
  "deployedLinkReferences": {}
}